:100000000C9434000C941C010C9482010C9451004B
:100010000C9451000C9451000C9451000C9451001C
:100020000C9451000C94D1010C9451000C9451008B
:100030000C9451000C9451000C9451000C945100FC
:100040000C9451000C9451000C9451000C945100EC
:100050000C9451000C9451000C9451000C945100DC
:100060000C9451000C94510011241FBECFEFD8E026
:10007000DEBFCDBF11E0A0E0B1E0E8EEF8E002C0E5
:1000800005900D92AE35B107D9F711E0AEE5B1E0BC
:1000900001C01D92A638B107E1F70E947C020C94C2
:1000A00072040C940000882311F05F9A01C05F98DD
:1000B0005D9885E08A95F1F700005D9A08951F9399
:1000C000182F80780E945300812F80740E94530063
:1000D000812F80720E945300812F80710E945300F3
:1000E000812F88700E945300812F84700E945300DA
:1000F000812F82700E945300812F81700E945300D3
:100100001F9108955E9888E08A95F1F75E9A0895A8
:100110001F93DF93CF9300D0CDB7DEB7182F6A833C
:1001200049830E94820089810E945F006A81862F34
:100130000E945F00812F0E945F000F900F90CF916F
:10014000DF911F9108950F931F93CF93DF938C013D
:100150000E948200CAE0D0E0C801BE010E943C04B7
:100160008B01FC01E45CFE4F80810E945F00C801AE
:10017000BE010E943C048B01FC01E25EFE4F8081C7
:100180000E945F00C801BE010E943C0480509F4F46
:10019000FC0180810E945F0010935F0100935E016B
:1001A000DF91CF911F910F9108951F93182F0E94F7
:1001B000820080E00E945F0080E00E945F001337B1
:1001C00011F0133519F480910B0106C01C3611F0A3
:1001D0001C3421F480910C010E945F001F9108954E
:1001E000CF93DF93C82FD0E0C655DF4FA62FB0E0E6
:1001F000A853BF4FE42FF0E0EB51FF4F88816C9183
:1002000040810E948800DF91CF9108958AB1806F6C
:100210008AB91BB8089580915E0190915F010E9498
:10022000A300089580E00E945F0080E00E945F00CC
:1002300080E00E945F0008951F920F920FB60F9208
:100240001124EF92FF920F931F932F933F934F939D
:100250005F938F939F93AF93BF9380916101909130
:100260006201A0916301B09164014A991BC0209181
:1002700076013091770140917801509179017C01AC
:100280008D01E21AF30A040B150BA80197012A301D
:1002900031054105510530F0809160018160809306
:1002A000600108C08093760190937701A093780154
:1002B000B09379018091600180FF13C08091720139
:1002C00090917301A0917401B09175010196A11DE7
:1002D000B11D8093720190937301A0937401B09348
:1002E0007501BF91AF919F918F915F914F913F9118
:1002F0002F911F910F91FF90EF900F900FBE0F90D5
:100300001F9018951F920F920FB60F921124EF9223
:10031000FF920F931F932F933F934F935F938F936E
:100320009F93AF93BF938091610190916201A091DF
:100330006301B09164014B991BC020917A01309107
:100340007B0140917C0150917D017C018D01E21A7D
:10035000F30A040B150BA80197012A30310541055A
:10036000510530F08091600182608093600108C087
:1003700080937A0190937B01A0937C01B0937D01DF
:10038000BF91AF919F918F915F914F913F912F912D
:100390001F910F91FF90EF900F900FBE0F901F9045
:1003A00018951F920F920FB60F9211248F939F935F
:1003B000AF93BF938091610190916201A09163011D
:1003C000B09164010196A11DB11D809361019093CC
:1003D0006201A0936301B09364011092B200BF91D7
:1003E000AF919F918F910F900FBE0F901F90189516
:1003F0008FE59AEE0197F1F700C000008FE59AEEC5
:100400000197F1F700C000001092B000E1EBF0E0BE
:100410008081816080831092B200E6EBF0E0808101
:1004200080628083E0E7F0E08081816080831AB899
:100430008FEF84B9E9E6F0E08081856080838DB339
:1004400083608DBB7894089580918201909183019F
:10045000A0918401B09185018F3F2FEF92072FEF7C
:10046000A2072FEFB20749F180915A0190915B01E9
:10047000A0915C01B0915D018F3F2FEF92072FEFAC
:10048000A2072FEFB207C9F480917101882359F4B4
:1004900080917E0190917F01A0918001B0918101B6
:1004A0000E94A300089580916D0190916E01A0912A
:1004B0006F01B09170010E94A300089580917101B5
:1004C000882321F48CE665E64EE603C083E760E707
:1004D00044E60E94F0008091610190916201A09138
:1004E0006301B091640180935A0190935B01A093E2
:1004F0005C01B0935D0108952F923F924F925F92FD
:100500006F927F928F929F92AF92BF92CF92DF9223
:10051000EF92FF920F931F930E94F8010E94060131
:1005200080916D0190916E01A0916F01B091700169
:1005300080917E0190917F01A0918001B091810115
:100540008FEF85B988E665E64CE60E94F0008EE103
:1005500090E0EFE6F7E13197F1F700C00000019776
:10056000C1F70E945E028091610190916201A091A9
:100570006301B091640180935A0190935B01A09351
:100580005C01B0935D01EE24EA94FE2C870190EAB1
:10059000692E96E8792E91E0892E912C86E6282EF8
:1005A00085E9382E412C512C80915A0190915B01A4
:1005B000A0915C01B0915D018F3FFFEF9F07FFEFBE
:1005C000AF07FFEFBF0731F18091610190916201A8
:1005D000A0916301B091640120915A0130915B01B7
:1005E00040915C0150915D01821B930BA40BB50BF4
:1005F00086369105A105B10568F0E0925A01F092A6
:100600005B0100935C0110935D0180916001846047
:10061000809360018091820190918301A091840177
:10062000B09185018F3F2FEF92072FEFA2072FEF99
:10063000B20731F18091610190916201A091630153
:10064000B091640120918201309183014091840135
:1006500050918501821B930BA40BB50B8038E2E00F
:100660009E07E0E0AE07E0E0BE0750F0E0928201B6
:10067000F092830100938401109385010E9412017E
:100680008091600180FF97C0809160018E7F809390
:100690006001A0907E01B0907F01C0908001D09059
:1006A0008101609172017091730180917401909148
:1006B00075012BE138E040E050E00E941D04A401E8
:1006C00093010E94500420937E0130937F01409358
:1006D00080015093810180917E0190917F01A091D2
:1006E0008001B09181018A159B05AC05BD0549F0DB
:1006F00080917101882329F4809160018460809346
:1007000060018091720190917301A0917401B09188
:10071000750183709070A070B0700097A105B1054D
:1007200009F049C08091610190916201A09163013B
:10073000B09164012091690130916A0140916B018F
:1007400050916C01821B930BA40BB50B8093650138
:1007500090936601A0936701B09368018091610155
:1007600090916201A0916301B0916401809369014D
:1007700090936A01A0936B01B0936C012091650185
:10078000309166014091670150916801C201B10149
:100790000E94500420936D0130936E0140936F01CD
:1007A0005093700180917101813029F48091600132
:1007B0008460809360018091600181FF32C08091EC
:1007C00060018D7F8093600180918201909183010F
:1007D000A0918401B09185018F3FFFEF9F07FFEF4C
:1007E000AF07FFEFBF0719F40E940B0108C080910B
:1007F000710190E0019681709070809371010E9468
:100800005E028091610190916201A0916301B091BB
:1008100064018093820190938301A0938401B0933B
:1008200085018091600182FFBFCE809160018B7F46
:10083000809360010E942402B7CE629FD001739F13
:10084000F001829FE00DF11D649FE00DF11D929F6C
:10085000F00D839FF00D749FF00D659FF00D9927AB
:10086000729FB00DE11DF91F639FB00DE11DF91FCF
:10087000BD01CF0111240895AA1BBB1B51E107C084
:10088000AA1FBB1FA617B70710F0A61BB70B881F20
:10089000991F5A95A9F780959095BC01CD010895AF
:1008A000A1E21A2EAA1BBB1BFD010DC0AA1FBB1F74
:1008B000EE1FFF1FA217B307E407F50720F0A21BE6
:1008C000B30BE40BF50B661F771F881F991F1A9453
:1008D00069F760957095809590959B01AC01BD017D
:0808E000CF010895F894FFCF49
:1008E80077413B6B4D6E7E437F6F805F7C38793FED
:1008F8001E7E5C40615C345758781F4F186E7B41F0
:1009080037674D6E7E437F6F805F7C34753F1E7EF8
:100918005C40615C385B54741F4F146EB78173E39D
:10092800C5E6F683F7E7D7F470F17756F6D480A1D9
:0E093800D43497D0F057C750E600FFFFFFFF02
:00000001FF
